{
  "_format": "hh-sol-artifact-1",
  "contractName": "MetaWallet",
  "sourceName": "contracts/MetaWallet.sol",
  "abi": [
    {
      "inputs": [],
      "stateMutability": "nonpayable",
      "type": "constructor"
    },
    {
      "inputs": [],
      "name": "claimWallet",
      "outputs": [],
      "stateMutability": "payable",
      "type": "function"
    },
    {
      "inputs": [
        {
          "internalType": "address",
          "name": "_address",
          "type": "address"
        }
      ],
      "name": "getWallet",
      "outputs": [
        {
          "components": [
            {
              "internalType": "bool",
              "name": "exists",
              "type": "bool"
            },
            {
              "internalType": "address",
              "name": "wallet",
              "type": "address"
            },
            {
              "internalType": "string",
              "name": "username",
              "type": "string"
            },
            {
              "internalType": "string",
              "name": "bio",
              "type": "string"
            },
            {
              "internalType": "string",
              "name": "avatar",
              "type": "string"
            },
            {
              "components": [
                {
                  "internalType": "string",
                  "name": "key",
                  "type": "string"
                },
                {
                  "internalType": "string",
                  "name": "value",
                  "type": "string"
                }
              ],
              "internalType": "struct MetaWallet.Link[20]",
              "name": "links",
              "type": "tuple[20]"
            }
          ],
          "internalType": "struct MetaWallet.WalletConfig",
          "name": "",
          "type": "tuple"
        }
      ],
      "stateMutability": "view",
      "type": "function"
    },
    {
      "inputs": [
        {
          "internalType": "address",
          "name": "_address",
          "type": "address"
        }
      ],
      "name": "isClaimedWallet",
      "outputs": [
        {
          "internalType": "bool",
          "name": "",
          "type": "bool"
        }
      ],
      "stateMutability": "view",
      "type": "function"
    },
    {
      "inputs": [
        {
          "internalType": "string",
          "name": "_username",
          "type": "string"
        },
        {
          "internalType": "string",
          "name": "_bio",
          "type": "string"
        },
        {
          "internalType": "string",
          "name": "_avatar",
          "type": "string"
        },
        {
          "components": [
            {
              "internalType": "string",
              "name": "key",
              "type": "string"
            },
            {
              "internalType": "string",
              "name": "value",
              "type": "string"
            }
          ],
          "internalType": "struct MetaWallet.Link[]",
          "name": "_links",
          "type": "tuple[]"
        }
      ],
      "name": "setWallet",
      "outputs": [],
      "stateMutability": "nonpayable",
      "type": "function"
    },
    {
      "inputs": [
        {
          "internalType": "address",
          "name": "",
          "type": "address"
        }
      ],
      "name": "walletMap",
      "outputs": [
        {
          "internalType": "bool",
          "name": "exists",
          "type": "bool"
        },
        {
          "internalType": "address",
          "name": "wallet",
          "type": "address"
        },
        {
          "internalType": "string",
          "name": "username",
          "type": "string"
        },
        {
          "internalType": "string",
          "name": "bio",
          "type": "string"
        },
        {
          "internalType": "string",
          "name": "avatar",
          "type": "string"
        }
      ],
      "stateMutability": "view",
      "type": "function"
    }
  ],
  "bytecode": "0x60806040523480156200001157600080fd5b506200005d6040518060400160405280601481526020017f4465706c6f79696e67204d65746157616c6c65740000000000000000000000008152506200006360201b62000c091760201c565b620001f7565b62000103816040516024016200007a919062000170565b6040516020818303038152906040527f41304fac000000000000000000000000000000000000000000000000000000007bffffffffffffffffffffffffffffffffffffffffffffffffffffffff19166020820180517bffffffffffffffffffffffffffffffffffffffffffffffffffffffff83818316178352505050506200010660201b60201c565b50565b60008151905060006a636f6e736f6c652e6c6f679050602083016000808483855afa5050505050565b60006200013c8262000194565b6200014881856200019f565b93506200015a818560208601620001b0565b6200016581620001e6565b840191505092915050565b600060208201905081810360008301526200018c81846200012f565b905092915050565b600081519050919050565b600082825260208201905092915050565b60005b83811015620001d0578082015181840152602081019050620001b3565b83811115620001e0576000848401525b50505050565b6000601f19601f8301169050919050565b61167c80620002076000396000f3fe60806040526004361061004a5760003560e01c806304d0a6471461004f578063368402871461008c57806343ec53fb146100b55780634476fb2d146100bf578063a2bd4943146100fc575b600080fd5b34801561005b57600080fd5b5061007660048036038101906100719190610fb3565b61013d565b604051610083919061135d565b60405180910390f35b34801561009857600080fd5b506100b360048036038101906100ae9190610fdc565b61052c565b005b6100bd610911565b005b3480156100cb57600080fd5b506100e660048036038101906100e19190610fb3565b6109b6565b6040516100f391906112b8565b60405180910390f35b34801561010857600080fd5b50610123600480360381019061011e9190610fb3565b610a0e565b6040516101349594939291906112d3565b60405180910390f35b610145610ccb565b6000808373ffffffffffffffffffffffffffffffffffffffff1673ffffffffffffffffffffffffffffffffffffffff1681526020019081526020016000206040518060c00160405290816000820160009054906101000a900460ff161515151581526020016000820160019054906101000a900473ffffffffffffffffffffffffffffffffffffffff1673ffffffffffffffffffffffffffffffffffffffff1673ffffffffffffffffffffffffffffffffffffffff16815260200160018201805461020f906114e5565b80601f016020809104026020016040519081016040528092919081815260200182805461023b906114e5565b80156102885780601f1061025d57610100808354040283529160200191610288565b820191906000526020600020905b81548152906001019060200180831161026b57829003601f168201915b505050505081526020016002820180546102a1906114e5565b80601f01602080910402602001604051908101604052809291908181526020018280546102cd906114e5565b801561031a5780601f106102ef5761010080835404028352916020019161031a565b820191906000526020600020905b8154815290600101906020018083116102fd57829003601f168201915b50505050508152602001600382018054610333906114e5565b80601f016020809104026020016040519081016040528092919081815260200182805461035f906114e5565b80156103ac5780601f10610381576101008083540402835291602001916103ac565b820191906000526020600020905b81548152906001019060200180831161038f57829003601f168201915b5050505050815260200160048201601480602002604051908101604052809291906000905b8282101561051d578382600202016040518060400160405290816000820180546103fa906114e5565b80601f0160208091040260200160405190810160405280929190818152602001828054610426906114e5565b80156104735780601f1061044857610100808354040283529160200191610473565b820191906000526020600020905b81548152906001019060200180831161045657829003601f168201915b5050505050815260200160018201805461048c906114e5565b80601f01602080910402602001604051908101604052809291908181526020018280546104b8906114e5565b80156105055780601f106104da57610100808354040283529160200191610505565b820191906000526020600020905b8154815290600101906020018083116104e857829003601f168201915b505050505081525050815260200190600101906103d1565b50505050815250509050919050565b6000803373ffffffffffffffffffffffffffffffffffffffff1673ffffffffffffffffffffffffffffffffffffffff16815260200190815260200160002060000160009054906101000a900460ff161561090b57836000803373ffffffffffffffffffffffffffffffffffffffff1673ffffffffffffffffffffffffffffffffffffffff16815260200190815260200160002060010190805190602001906105d5929190610d1f565b50826000803373ffffffffffffffffffffffffffffffffffffffff1673ffffffffffffffffffffffffffffffffffffffff168152602001908152602001600020600201908051906020019061062b929190610d1f565b50816000803373ffffffffffffffffffffffffffffffffffffffff1673ffffffffffffffffffffffffffffffffffffffff1681526020019081526020016000206003019080519060200190610681929190610d1f565b5060005b81518110156107f85760405180604001604052808383815181106106d2577f4e487b7100000000000000000000000000000000000000000000000000000000600052603260045260246000fd5b602002602001015160000151815260200183838151811061071c577f4e487b7100000000000000000000000000000000000000000000000000000000600052603260045260246000fd5b6020026020010151602001518152506000803373ffffffffffffffffffffffffffffffffffffffff1673ffffffffffffffffffffffffffffffffffffffff16815260200190815260200160002060040182601481106107a4577f4e487b7100000000000000000000000000000000000000000000000000000000600052603260045260246000fd5b6002020160008201518160000190805190602001906107c4929190610d1f565b5060208201518160010190805190602001906107e1929190610d1f565b5090505080806107f090611548565b915050610685565b506000815190505b6014811015610909576040518060400160405280604051806020016040528060008152508152602001604051806020016040528060008152508152506000803373ffffffffffffffffffffffffffffffffffffffff1673ffffffffffffffffffffffffffffffffffffffff16815260200190815260200160002060040182601481106108b5577f4e487b7100000000000000000000000000000000000000000000000000000000600052603260045260246000fd5b6002020160008201518160000190805190602001906108d5929190610d1f565b5060208201518160010190805190602001906108f2929190610d1f565b50905050808061090190611548565b915050610800565b505b50505050565b60008060003373ffffffffffffffffffffffffffffffffffffffff1673ffffffffffffffffffffffffffffffffffffffff168152602001908152602001600020905060018160000160006101000a81548160ff021916908315150217905550338160000160016101000a81548173ffffffffffffffffffffffffffffffffffffffff021916908373ffffffffffffffffffffffffffffffffffffffff16021790555050565b60008060008373ffffffffffffffffffffffffffffffffffffffff1673ffffffffffffffffffffffffffffffffffffffff16815260200190815260200160002060000160009054906101000a900460ff169050919050565b60006020528060005260406000206000915090508060000160009054906101000a900460ff16908060000160019054906101000a900473ffffffffffffffffffffffffffffffffffffffff1690806001018054610a6a906114e5565b80601f0160208091040260200160405190810160405280929190818152602001828054610a96906114e5565b8015610ae35780601f10610ab857610100808354040283529160200191610ae3565b820191906000526020600020905b815481529060010190602001808311610ac657829003601f168201915b505050505090806002018054610af8906114e5565b80601f0160208091040260200160405190810160405280929190818152602001828054610b24906114e5565b8015610b715780601f10610b4657610100808354040283529160200191610b71565b820191906000526020600020905b815481529060010190602001808311610b5457829003601f168201915b505050505090806003018054610b86906114e5565b80601f0160208091040260200160405190810160405280929190818152602001828054610bb2906114e5565b8015610bff5780601f10610bd457610100808354040283529160200191610bff565b820191906000526020600020905b815481529060010190602001808311610be257829003601f168201915b5050505050905085565b610c9f81604051602401610c1d919061133b565b6040516020818303038152906040527f41304fac000000000000000000000000000000000000000000000000000000007bffffffffffffffffffffffffffffffffffffffffffffffffffffffff19166020820180517bffffffffffffffffffffffffffffffffffffffffffffffffffffffff8381831617835250505050610ca2565b50565b60008151905060006a636f6e736f6c652e6c6f679050602083016000808483855afa5050505050565b6040518060c00160405280600015158152602001600073ffffffffffffffffffffffffffffffffffffffff168152602001606081526020016060815260200160608152602001610d19610da5565b81525090565b828054610d2b906114e5565b90600052602060002090601f016020900481019282610d4d5760008555610d94565b82601f10610d6657805160ff1916838001178555610d94565b82800160010185558215610d94579182015b82811115610d93578251825591602001919060010190610d78565b5b509050610da19190610dd3565b5090565b6040518061028001604052806014905b610dbd610df0565b815260200190600190039081610db55790505090565b5b80821115610dec576000816000905550600101610dd4565b5090565b604051806040016040528060608152602001606081525090565b6000610e1d610e18846113a4565b61137f565b90508083825260208201905082856020860282011115610e3c57600080fd5b60005b85811015610e8657813567ffffffffffffffff811115610e5e57600080fd5b808601610e6b8982610f37565b85526020850194506020840193505050600181019050610e3f565b5050509392505050565b6000610ea3610e9e846113d0565b61137f565b905082815260208101848484011115610ebb57600080fd5b610ec68482856114a3565b509392505050565b600081359050610edd8161162f565b92915050565b600082601f830112610ef457600080fd5b8135610f04848260208601610e0a565b91505092915050565b600082601f830112610f1e57600080fd5b8135610f2e848260208601610e90565b91505092915050565b600060408284031215610f4957600080fd5b610f53604061137f565b9050600082013567ffffffffffffffff811115610f6f57600080fd5b610f7b84828501610f0d565b600083015250602082013567ffffffffffffffff811115610f9b57600080fd5b610fa784828501610f0d565b60208301525092915050565b600060208284031215610fc557600080fd5b6000610fd384828501610ece565b91505092915050565b60008060008060808587031215610ff257600080fd5b600085013567ffffffffffffffff81111561100c57600080fd5b61101887828801610f0d565b945050602085013567ffffffffffffffff81111561103557600080fd5b61104187828801610f0d565b935050604085013567ffffffffffffffff81111561105e57600080fd5b61106a87828801610f0d565b925050606085013567ffffffffffffffff81111561108757600080fd5b61109387828801610ee3565b91505092959194509250565b60006110ab83836111d6565b905092915050565b6110bc8161145b565b82525050565b6110cb8161145b565b82525050565b60006110dc8261140b565b6110e6818561142e565b9350836020820285016110f885611401565b8060005b858110156111345784840389528151611115858261109f565b945061112083611421565b925060208a019950506001810190506110fc565b50829750879550505050505092915050565b61114f8161146d565b82525050565b61115e8161146d565b82525050565b600061116f82611416565b6111798185611439565b93506111898185602086016114b2565b6111928161161e565b840191505092915050565b60006111a882611416565b6111b2818561144a565b93506111c28185602086016114b2565b6111cb8161161e565b840191505092915050565b600060408301600083015184820360008601526111f38282611164565b9150506020830151848203602086015261120d8282611164565b9150508091505092915050565b600060c0830160008301516112326000860182611146565b50602083015161124560208601826110b3565b506040830151848203604086015261125d8282611164565b915050606083015184820360608601526112778282611164565b915050608083015184820360808601526112918282611164565b91505060a083015184820360a08601526112ab82826110d1565b9150508091505092915050565b60006020820190506112cd6000830184611155565b92915050565b600060a0820190506112e86000830188611155565b6112f560208301876110c2565b8181036040830152611307818661119d565b9050818103606083015261131b818561119d565b9050818103608083015261132f818461119d565b90509695505050505050565b60006020820190508181036000830152611355818461119d565b905092915050565b60006020820190508181036000830152611377818461121a565b905092915050565b600061138961139a565b90506113958282611517565b919050565b6000604051905090565b600067ffffffffffffffff8211156113bf576113be6115ef565b5b602082029050602081019050919050565b600067ffffffffffffffff8211156113eb576113ea6115ef565b5b6113f48261161e565b9050602081019050919050565b6000819050919050565b600060149050919050565b600081519050919050565b6000602082019050919050565b600081905092915050565b600082825260208201905092915050565b600082825260208201905092915050565b600061146682611479565b9050919050565b60008115159050919050565b600073ffffffffffffffffffffffffffffffffffffffff82169050919050565b6000819050919050565b82818337600083830152505050565b60005b838110156114d05780820151818401526020810190506114b5565b838111156114df576000848401525b50505050565b600060028204905060018216806114fd57607f821691505b60208210811415611511576115106115c0565b5b50919050565b6115208261161e565b810181811067ffffffffffffffff8211171561153f5761153e6115ef565b5b80604052505050565b600061155382611499565b91507fffffffffffffffffffffffffffffffffffffffffffffffffffffffffffffffff82141561158657611585611591565b5b600182019050919050565b7f4e487b7100000000000000000000000000000000000000000000000000000000600052601160045260246000fd5b7f4e487b7100000000000000000000000000000000000000000000000000000000600052602260045260246000fd5b7f4e487b7100000000000000000000000000000000000000000000000000000000600052604160045260246000fd5b6000601f19601f8301169050919050565b6116388161145b565b811461164357600080fd5b5056fea2646970667358221220317695e731c58067d43b99cb40f6a6a0164775a441e916c327a99d4bd20d6c6164736f6c63430008040033",
  "linkReferences": {},
  "deployedLinkReferences": {}
}